{
  "_format": "hh-sol-artifact-1",
  "contractName": "CrossiantToken",
  "sourceName": "contracts/Crossiant.sol",
  "abi": [
    {
      "inputs": [
        {
          "internalType": "uint256",
          "name": "cap",
          "type": "uint256"
        },
        {
          "internalType": "uint256",
          "name": "reward",
          "type": "uint256"
        }
      ],
      "stateMutability": "nonpayable",
      "type": "constructor"
    },
    {
      "anonymous": false,
      "inputs": [
        {
          "indexed": true,
          "internalType": "address",
          "name": "owner",
          "type": "address"
        },
        {
          "indexed": true,
          "internalType": "address",
          "name": "spender",
          "type": "address"
        },
        {
          "indexed": false,
          "internalType": "uint256",
          "name": "value",
          "type": "uint256"
        }
      ],
      "name": "Approval",
      "type": "event"
    },
    {
      "anonymous": false,
      "inputs": [
        {
          "indexed": true,
          "internalType": "address",
          "name": "from",
          "type": "address"
        },
        {
          "indexed": true,
          "internalType": "address",
          "name": "to",
          "type": "address"
        },
        {
          "indexed": false,
          "internalType": "uint256",
          "name": "value",
          "type": "uint256"
        }
      ],
      "name": "Transfer",
      "type": "event"
    },
    {
      "inputs": [
        {
          "internalType": "address",
          "name": "owner",
          "type": "address"
        },
        {
          "internalType": "address",
          "name": "spender",
          "type": "address"
        }
      ],
      "name": "allowance",
      "outputs": [
        {
          "internalType": "uint256",
          "name": "",
          "type": "uint256"
        }
      ],
      "stateMutability": "view",
      "type": "function"
    },
    {
      "inputs": [
        {
          "internalType": "address",
          "name": "spender",
          "type": "address"
        },
        {
          "internalType": "uint256",
          "name": "amount",
          "type": "uint256"
        }
      ],
      "name": "approve",
      "outputs": [
        {
          "internalType": "bool",
          "name": "",
          "type": "bool"
        }
      ],
      "stateMutability": "nonpayable",
      "type": "function"
    },
    {
      "inputs": [
        {
          "internalType": "address",
          "name": "account",
          "type": "address"
        }
      ],
      "name": "balanceOf",
      "outputs": [
        {
          "internalType": "uint256",
          "name": "",
          "type": "uint256"
        }
      ],
      "stateMutability": "view",
      "type": "function"
    },
    {
      "inputs": [],
      "name": "blockReward",
      "outputs": [
        {
          "internalType": "uint256",
          "name": "",
          "type": "uint256"
        }
      ],
      "stateMutability": "view",
      "type": "function"
    },
    {
      "inputs": [
        {
          "internalType": "uint256",
          "name": "amount",
          "type": "uint256"
        }
      ],
      "name": "burn",
      "outputs": [],
      "stateMutability": "nonpayable",
      "type": "function"
    },
    {
      "inputs": [
        {
          "internalType": "address",
          "name": "account",
          "type": "address"
        },
        {
          "internalType": "uint256",
          "name": "amount",
          "type": "uint256"
        }
      ],
      "name": "burnFrom",
      "outputs": [],
      "stateMutability": "nonpayable",
      "type": "function"
    },
    {
      "inputs": [],
      "name": "cap",
      "outputs": [
        {
          "internalType": "uint256",
          "name": "",
          "type": "uint256"
        }
      ],
      "stateMutability": "view",
      "type": "function"
    },
    {
      "inputs": [],
      "name": "decimals",
      "outputs": [
        {
          "internalType": "uint8",
          "name": "",
          "type": "uint8"
        }
      ],
      "stateMutability": "view",
      "type": "function"
    },
    {
      "inputs": [
        {
          "internalType": "address",
          "name": "spender",
          "type": "address"
        },
        {
          "internalType": "uint256",
          "name": "subtractedValue",
          "type": "uint256"
        }
      ],
      "name": "decreaseAllowance",
      "outputs": [
        {
          "internalType": "bool",
          "name": "",
          "type": "bool"
        }
      ],
      "stateMutability": "nonpayable",
      "type": "function"
    },
    {
      "inputs": [],
      "name": "destroy",
      "outputs": [],
      "stateMutability": "nonpayable",
      "type": "function"
    },
    {
      "inputs": [
        {
          "internalType": "address",
          "name": "spender",
          "type": "address"
        },
        {
          "internalType": "uint256",
          "name": "addedValue",
          "type": "uint256"
        }
      ],
      "name": "increaseAllowance",
      "outputs": [
        {
          "internalType": "bool",
          "name": "",
          "type": "bool"
        }
      ],
      "stateMutability": "nonpayable",
      "type": "function"
    },
    {
      "inputs": [],
      "name": "name",
      "outputs": [
        {
          "internalType": "string",
          "name": "",
          "type": "string"
        }
      ],
      "stateMutability": "view",
      "type": "function"
    },
    {
      "inputs": [],
      "name": "owner",
      "outputs": [
        {
          "internalType": "address payable",
          "name": "",
          "type": "address"
        }
      ],
      "stateMutability": "view",
      "type": "function"
    },
    {
      "inputs": [
        {
          "internalType": "uint256",
          "name": "reward",
          "type": "uint256"
        }
      ],
      "name": "setBlockReward",
      "outputs": [],
      "stateMutability": "nonpayable",
      "type": "function"
    },
    {
      "inputs": [],
      "name": "symbol",
      "outputs": [
        {
          "internalType": "string",
          "name": "",
          "type": "string"
        }
      ],
      "stateMutability": "view",
      "type": "function"
    },
    {
      "inputs": [],
      "name": "totalSupply",
      "outputs": [
        {
          "internalType": "uint256",
          "name": "",
          "type": "uint256"
        }
      ],
      "stateMutability": "view",
      "type": "function"
    },
    {
      "inputs": [
        {
          "internalType": "address",
          "name": "to",
          "type": "address"
        },
        {
          "internalType": "uint256",
          "name": "amount",
          "type": "uint256"
        }
      ],
      "name": "transfer",
      "outputs": [
        {
          "internalType": "bool",
          "name": "",
          "type": "bool"
        }
      ],
      "stateMutability": "nonpayable",
      "type": "function"
    },
    {
      "inputs": [
        {
          "internalType": "address",
          "name": "from",
          "type": "address"
        },
        {
          "internalType": "address",
          "name": "to",
          "type": "address"
        },
        {
          "internalType": "uint256",
          "name": "amount",
          "type": "uint256"
        }
      ],
      "name": "transferFrom",
      "outputs": [
        {
          "internalType": "bool",
          "name": "",
          "type": "bool"
        }
      ],
      "stateMutability": "nonpayable",
      "type": "function"
    }
  ],
  "bytecode": "0x60a06040523480156200001157600080fd5b5060405162001748380380620017488339810160408190526200003491620003d7565b620000426012600a62000511565b6200004e908362000529565b6040518060400160405280600981526020016810dc9bdcdcda585b9d60ba1b8152506040518060400160405280600381526020016210d49560ea1b81525081600390816200009d9190620005e7565b506004620000ac8282620005e7565b50505060008111620001055760405162461bcd60e51b815260206004820152601560248201527f45524332304361707065643a206361702069732030000000000000000000000060448201526064015b60405180910390fd5b608052600580546001600160a01b031916339081179091556200014d906200012b601290565b6200013890600a62000511565b6200014790620aae6062000529565b62000173565b6200015b6012600a62000511565b62000167908262000529565b60065550620006c99050565b608051816200018c6200020360201b620003a01760201c565b620001989190620006b3565b1115620001e85760405162461bcd60e51b815260206004820152601960248201527f45524332304361707065643a20636170206578636565646564000000000000006044820152606401620000fc565b620001ff82826200020960201b620005f51760201c565b5050565b60025490565b60805181620002226200020360201b620003a01760201c565b6200022e9190620006b3565b11156200027e5760405162461bcd60e51b815260206004820152601960248201527f45524332304361707065643a20636170206578636565646564000000000000006044820152606401620000fc565b620001ff82826200029560201b6200067e1760201c565b6001600160a01b038216620002ed5760405162461bcd60e51b815260206004820152601f60248201527f45524332303a206d696e7420746f20746865207a65726f2061646472657373006044820152606401620000fc565b620002fb6000838362000366565b80600260008282546200030f9190620006b3565b90915550506001600160a01b038216600081815260208181526040808320805486019055518481527fddf252ad1be2c89b69c2b068fc378daa952ba7f163c4a11628f55a4df523b3ef910160405180910390a35050565b6001600160a01b038316158015906200038857506001600160a01b0382164114155b80156200039457504115155b15620003a457620003a4620003c1565b620003bc838383620003bc60201b620007491760201c565b505050565b620003d5416006546200017360201b60201c565b565b60008060408385031215620003eb57600080fd5b505080516020909101519092909150565b634e487b7160e01b600052601160045260246000fd5b600181815b8085111562000453578160001904821115620004375762000437620003fc565b808516156200044557918102915b93841c939080029062000417565b509250929050565b6000826200046c575060016200050b565b816200047b575060006200050b565b81600181146200049457600281146200049f57620004bf565b60019150506200050b565b60ff841115620004b357620004b3620003fc565b50506001821b6200050b565b5060208310610133831016604e8410600b8410161715620004e4575081810a6200050b565b620004f0838362000412565b8060001904821115620005075762000507620003fc565b0290505b92915050565b60006200052260ff8416836200045b565b9392505050565b80820281158282048414176200050b576200050b620003fc565b634e487b7160e01b600052604160045260246000fd5b600181811c908216806200056e57607f821691505b6020821081036200058f57634e487b7160e01b600052602260045260246000fd5b50919050565b601f821115620003bc57600081815260208120601f850160051c81016020861015620005be5750805b601f850160051c820191505b81811015620005df57828155600101620005ca565b505050505050565b81516001600160401b0381111562000603576200060362000543565b6200061b8162000614845462000559565b8462000595565b602080601f8311600181146200065357600084156200063a5750858301515b600019600386901b1c1916600185901b178555620005df565b600085815260208120601f198616915b82811015620006845788860151825594840194600190910190840162000663565b5085821015620006a35787850151600019600388901b60f8161c191681555b5050505050600190811b01905550565b808201808211156200050b576200050b620003fc565b608051611055620006f3600039600081816101d4015281816105f70152610ce901526110556000f3fe608060405234801561001057600080fd5b50600436106101365760003560e01c806342966c68116100b25780638da5cb5b11610081578063a457c2d711610066578063a457c2d714610295578063a9059cbb146102a8578063dd62ed3e146102bb57600080fd5b80638da5cb5b1461026257806395d89b411461028d57600080fd5b806342966c681461020b57806370a082311461021e57806379cc67901461024757806383197ef01461025a57600080fd5b80631a18e70711610109578063313ce567116100ee578063313ce567146101c3578063355274ea146101d257806339509351146101f857600080fd5b80631a18e7071461019b57806323b872dd146101b057600080fd5b806306fdde031461013b578063095ea7b3146101595780630ac168a11461017c57806318160ddd14610193575b600080fd5b6101436102f4565b6040516101509190610d74565b60405180910390f35b61016c610167366004610dde565b610386565b6040519015158152602001610150565b61018560065481565b604051908152602001610150565b600254610185565b6101ae6101a9366004610e08565b6103a6565b005b61016c6101be366004610e21565b61042f565b60405160128152602001610150565b7f0000000000000000000000000000000000000000000000000000000000000000610185565b61016c610206366004610dde565b610453565b6101ae610219366004610e08565b610492565b61018561022c366004610e5d565b6001600160a01b031660009081526020819052604090205490565b6101ae610255366004610dde565b61049f565b6101ae6104b8565b600554610275906001600160a01b031681565b6040516001600160a01b039091168152602001610150565b61014361052e565b61016c6102a3366004610dde565b61053d565b61016c6102b6366004610dde565b6105e7565b6101856102c9366004610e7f565b6001600160a01b03918216600090815260016020908152604080832093909416825291909152205490565b60606003805461030390610eb2565b80601f016020809104026020016040519081016040528092919081815260200182805461032f90610eb2565b801561037c5780601f106103515761010080835404028352916020019161037c565b820191906000526020600020905b81548152906001019060200180831161035f57829003601f168201915b5050505050905090565b60003361039481858561074e565b60019150505b92915050565b60025490565b6005546001600160a01b031633146104135760405162461bcd60e51b815260206004820152602560248201527f4f6e6c7920746865206f776e65722063616e2063616c6c20746869732066756e60448201526431ba34b7b760d91b60648201526084015b60405180910390fd5b61041f6012600a610fe6565b6104299082610ff5565b60065550565b60003361043d8582856108a6565b610448858585610938565b506001949350505050565b3360008181526001602090815260408083206001600160a01b0387168452909152812054909190610394908290869061048d90879061100c565b61074e565b61049c3382610b30565b50565b6104aa8233836108a6565b6104b48282610b30565b5050565b6005546001600160a01b031633146105205760405162461bcd60e51b815260206004820152602560248201527f4f6e6c7920746865206f776e65722063616e2063616c6c20746869732066756e60448201526431ba34b7b760d91b606482015260840161040a565b6005546001600160a01b0316ff5b60606004805461030390610eb2565b3360008181526001602090815260408083206001600160a01b0387168452909152812054909190838110156105da5760405162461bcd60e51b815260206004820152602560248201527f45524332303a2064656372656173656420616c6c6f77616e63652062656c6f7760448201527f207a65726f000000000000000000000000000000000000000000000000000000606482015260840161040a565b610448828686840361074e565b600033610394818585610938565b7f00000000000000000000000000000000000000000000000000000000000000008161062060025490565b61062a919061100c565b11156106785760405162461bcd60e51b815260206004820152601960248201527f45524332304361707065643a2063617020657863656564656400000000000000604482015260640161040a565b6104b482825b6001600160a01b0382166106d45760405162461bcd60e51b815260206004820152601f60248201527f45524332303a206d696e7420746f20746865207a65726f206164647265737300604482015260640161040a565b6106e060008383610ca5565b80600260008282546106f2919061100c565b90915550506001600160a01b038216600081815260208181526040808320805486019055518481527fddf252ad1be2c89b69c2b068fc378daa952ba7f163c4a11628f55a4df523b3ef910160405180910390a35050565b505050565b6001600160a01b0383166107c95760405162461bcd60e51b8152602060048201526024808201527f45524332303a20617070726f76652066726f6d20746865207a65726f2061646460448201527f7265737300000000000000000000000000000000000000000000000000000000606482015260840161040a565b6001600160a01b0382166108455760405162461bcd60e51b815260206004820152602260248201527f45524332303a20617070726f766520746f20746865207a65726f20616464726560448201527f7373000000000000000000000000000000000000000000000000000000000000606482015260840161040a565b6001600160a01b0383811660008181526001602090815260408083209487168084529482529182902085905590518481527f8c5be1e5ebec7d5bd14f71427d1e84f3dd0314c0f7b2291e5b200ac8c7c3b925910160405180910390a3505050565b6001600160a01b03838116600090815260016020908152604080832093861683529290522054600019811461093257818110156109255760405162461bcd60e51b815260206004820152601d60248201527f45524332303a20696e73756666696369656e7420616c6c6f77616e6365000000604482015260640161040a565b610932848484840361074e565b50505050565b6001600160a01b0383166109b45760405162461bcd60e51b815260206004820152602560248201527f45524332303a207472616e736665722066726f6d20746865207a65726f20616460448201527f6472657373000000000000000000000000000000000000000000000000000000606482015260840161040a565b6001600160a01b038216610a305760405162461bcd60e51b815260206004820152602360248201527f45524332303a207472616e7366657220746f20746865207a65726f206164647260448201527f6573730000000000000000000000000000000000000000000000000000000000606482015260840161040a565b610a3b838383610ca5565b6001600160a01b03831660009081526020819052604090205481811015610aca5760405162461bcd60e51b815260206004820152602660248201527f45524332303a207472616e7366657220616d6f756e742065786365656473206260448201527f616c616e63650000000000000000000000000000000000000000000000000000606482015260840161040a565b6001600160a01b03848116600081815260208181526040808320878703905593871680835291849020805487019055925185815290927fddf252ad1be2c89b69c2b068fc378daa952ba7f163c4a11628f55a4df523b3ef910160405180910390a3610932565b6001600160a01b038216610bac5760405162461bcd60e51b815260206004820152602160248201527f45524332303a206275726e2066726f6d20746865207a65726f2061646472657360448201527f7300000000000000000000000000000000000000000000000000000000000000606482015260840161040a565b610bb882600083610ca5565b6001600160a01b03821660009081526020819052604090205481811015610c475760405162461bcd60e51b815260206004820152602260248201527f45524332303a206275726e20616d6f756e7420657863656564732062616c616e60448201527f6365000000000000000000000000000000000000000000000000000000000000606482015260840161040a565b6001600160a01b0383166000818152602081815260408083208686039055600280548790039055518581529192917fddf252ad1be2c89b69c2b068fc378daa952ba7f163c4a11628f55a4df523b3ef910160405180910390a3505050565b6001600160a01b03831615801590610cc657506001600160a01b0382164114155b8015610cd157504115155b1561074957610749610ce541600654610ce7565b565b7f000000000000000000000000000000000000000000000000000000000000000081610d1260025490565b610d1c919061100c565b1115610d6a5760405162461bcd60e51b815260206004820152601960248201527f45524332304361707065643a2063617020657863656564656400000000000000604482015260640161040a565b6104b482826105f5565b600060208083528351808285015260005b81811015610da157858101830151858201604001528201610d85565b506000604082860101526040601f19601f8301168501019250505092915050565b80356001600160a01b0381168114610dd957600080fd5b919050565b60008060408385031215610df157600080fd5b610dfa83610dc2565b946020939093013593505050565b600060208284031215610e1a57600080fd5b5035919050565b600080600060608486031215610e3657600080fd5b610e3f84610dc2565b9250610e4d60208501610dc2565b9150604084013590509250925092565b600060208284031215610e6f57600080fd5b610e7882610dc2565b9392505050565b60008060408385031215610e9257600080fd5b610e9b83610dc2565b9150610ea960208401610dc2565b90509250929050565b600181811c90821680610ec657607f821691505b602082108103610ee657634e487b7160e01b600052602260045260246000fd5b50919050565b634e487b7160e01b600052601160045260246000fd5b600181815b80851115610f3d578160001904821115610f2357610f23610eec565b80851615610f3057918102915b93841c9390800290610f07565b509250929050565b600082610f545750600161039a565b81610f615750600061039a565b8160018114610f775760028114610f8157610f9d565b600191505061039a565b60ff841115610f9257610f92610eec565b50506001821b61039a565b5060208310610133831016604e8410600b8410161715610fc0575081810a61039a565b610fca8383610f02565b8060001904821115610fde57610fde610eec565b029392505050565b6000610e7860ff841683610f45565b808202811582820484141761039a5761039a610eec565b8082018082111561039a5761039a610eec56fea26469706673582212208e52e1ac0a642095f0ab1037769101d77998bec75d2a6618d3ae38f3c11cd9f664736f6c63430008110033",
  "linkReferences": {},
  "deployedLinkReferences": {}
}